:100000000C943A000C9457000C9457000C94570031
:100010000C9459000C9457000C9457000C94570002
:100020000C9457000C9457000C9457000C945700F4
:100030000C9457000C9457000C9457000C945700E4
:100040000C9457000C9457000C9457000C945700D4
:100050000C9457000C9457000C9457000C945700C4
:100060000C9457000C9457006364696E6F7073753D
:1000700078585B0011241FBECFEFD8E0DEBFCDBFA4
:1000800011E0A0E0B1E0E8E3FCE102C005900D92D0
:10009000A236B107D9F721E0A2E6B1E001C01D9276
:1000A000AE3DB207E1F70E943A030C941A0E0C948D
:1000B00000001F920F920FB60F9211244F935F937F
:1000C0006F937F938F939F93AF93BF93CF93DF9360
:1000D000EF93FF93A091D701AA0FAA0FA093D70186
:1000E00086B18370A82BA093D701E091D6018E2F03
:1000F000880F880F8093D601E6B1EC70E695E695FF
:10010000E82BE093D601C0916401D0916501498D3F
:100110005A8D6B8D7C8DAF70B0E0AA5FBE4F8C9115
:10012000082E000C990BAA0BBB0B840F951FA61F62
:10013000B71F898F9A8FAB8FBC8FC0916201D0910E
:100140006301498D5A8D6B8D7C8DEF70F0E0EA5F15
:10015000FE4F8081082E000C990BAA0BBB0B840F5D
:10016000951FA61FB71F898F9A8FAB8FBC8FFF91EA
:10017000EF91DF91CF91BF91AF919F918F917F913F
:100180006F915F914F910F900FBE0F901F90189538
:100190001092B90098E49093B80090E0880F991FEE
:1001A0008093BA0084EC8093BC00089588E00E949C
:1001B000C8000895CF93DF9380916E01823009F4D7
:1001C00073C028F4882351F08130D9F11EC18330E7
:1001D00009F4BCC0843009F4E6C017C1E0916201A3
:1001E000F091630180A18F93878D8F93868D8F937C
:1001F000858D8F93E0916401F091650180A18F93CB
:10020000878D8F93868D8F93858D8F9389E291E073
:100210009F938F93CFE6D1E0DF93CF930E94E507C2
:1002200009900020E9F72197CF56D140C093D5011E
:100230008DB79EB70C960FB6F8949EBF0FBE8DBFBC
:10024000E4C0E0916201F091630184858F9383851E
:100250008F9382858F9381858F93E0916401F091D4
:10026000650184858F9383858F9382858F938185A4
:100270008F9386E191E09F938F93CFE6D1E0DF9358
:10028000CF930E94E50709900020E9F72197CF5608
:10029000D140C093D5018DB79EB70C960FB6F89498
:1002A0009EBF0FBE8DBFB1C0A0916201B09163012E
:1002B000E0916401F091650190968C9190978F93F5
:1002C0005F968C915F978F935E968C915E978F93DC
:1002D0005D968C915D978F9380A18F93878D8F937F
:1002E000868D8F93858D8F931C968C911C978F9301
:1002F0001B968C911B978F931A968C911A978F93BC
:1003000019968C918F9384858F9383858F938285A3
:100310008F9381858F9380E291E09F938F93CFE6B7
:10032000D1E0DF93CF930E94E50709900020E9F721
:100330002197CF56D140C093D5018DB79EB7449633
:100340000FB6F8949EBF0FBE8DBF5FC0E6E6F1E02A
:1003500087818F9386818F9385818F9384818F93FB
:1003600083818F9382818F9381818F9380818F93FB
:1003700083E391E09F938F93CFE6D1E0DF93CF9318
:100380000E94E50709900020E9F72197CF56D14058
:10039000C093D5018DB79EB70C960FB6F8949EBF4B
:1003A0000FBE8DBF32C0E0916201F0916301808980
:1003B0008F9387858F9386858F9385858F93E09123
:1003C0006401F091650180898F9387858F9386857D
:1003D0008F9385858F9383E491E09F938F93CFE6EE
:1003E000D1E0DF93CF930E94E50709900020E9F761
:1003F0002197CF56D140C093D5018DB79EB70C96AB
:100400000FB6F8949EBF0FBE8DBFDF91CF910895B8
:100410000F931F938091A1018F3361F58091A20109
:10042000863559F028F48F3399F0803559F0A6C0FD
:100430008E35A1F08437C1F0A1C010926E010E94E8
:10044000DA009CC081E080936E010E94DA0096C0C1
:1004500082E080936E010E94DA0090C083E0809376
:100460006E010E94DA008AC084E080936E010E94CF
:10047000DA0084C0863531F08E3549F18A3209F0D0
:100480007DC074C080916201909163010D969F932D
:100490008F9380916401909165010D969F938F9346
:1004A0008CE491E09F938F9382EA91E09F938F93E6
:1004B0000E9408081092D9011092D8018DB79EB7FA
:1004C00008960FB6F8949EBF0FBE8DBF57C08CE63E
:1004D00091E09F938F938AE691E09F938F9388E6B4
:1004E00091E09F938F9386E691E09F938F9385E5AC
:1004F00091E09F938F9382EA91E09F938F930E9464
:1005000008080091660110916701209168013091FF
:10051000690140916A0150916B0160916C01709189
:100520006D0180916401909165010E946D040091BC
:100530006601109167012091680130916901409135
:100540006A0150916B0160916C0170916D01809115
:100550006201909163010E946D048DB79EB70C9665
:100560000FB6F8949EBF0FBE8DBF08C048E050E0A4
:1005700060E070E086E691E00E94CB0D1F910F9144
:1005800008958091B900887F803A09F459C048F4F1
:100590008038E1F1883809F45FC0803609F064C022
:1005A0002DC0883B59F018F4883A31F05DC0803C8A
:1005B000E9F0883CD9F058C01092D301E091D30102
:1005C0008091D501E81748F481E08E0F8093D30124
:1005D000F0E0E159FE4F808101C080E08093BB00D4
:1005E000ECEBF0E08081806C808308951092D30161
:1005F000ECEBF0E08081806C808308951092D40150
:10060000ECEBF0E08081806C80830895A4EDB1E094
:10061000EC9181E08E0F8C939091BB00F0E0E1595A
:10062000FE4F92AB823330F0ECEBF0E080818068DB
:1006300080830895ECEBF0E08081806C80830895E6
:10064000A4EDB1E0EC9181E08E0F8C938091BB0022
:10065000F0E0E159FE4F82AB0E940802ECEBF0E0C3
:100660008081806C80830895ECEBF0E08081806C69
:1006700080830895CF93DF93CDB7DEB760970FB631
:10068000F894DEBF0FBECDBF0E94D60017B88FEF23
:1006900084B98AB9789482E0809368008FE080936F
:1006A0006C0083E08093810083EA84BD80E887BD8D
:1006B00018BC81E085BD48E050E060E070E086E66F
:1006C00091E00E94BB0D88E0E6E6F1E0DE011996BC
:1006D00001900D928A95E1F785E490E00E94B806BA
:1006E0003C0189849A84AB84BC84CD84DE84EF840D
:1006F000F88802E021E045E250E067E470E00E9403
:10070000FA03709265016092640188E0E6E6F1E028
:10071000DE01119601900D928A95E1F785E490E053
:100720000E94B8063C0189809A80AB80BC80CD8055
:10073000DE80EF80F88408E024E045E250E068E4E1
:1007400070E00E94FA03709263016092620104E813
:1007500010E00F2EFCEBEF2EF12CF02DF801808134
:100760009181843D9043E0F18091D8019091D9012D
:1007700001969093D9018093D801059784F0E09178
:100780006401F0916501158616861786108AE0913E
:100790006201F0916301158616861786108AF801AA
:1007A0006081718180916401909165010E949D0436
:1007B000F8016081718180916201909163010E94D2
:1007C0009D04F8011182108280916401909165016D
:1007D0000E94C10480916201909163010E94C10452
:1007E000F701808188230CF0B9CF0E94DA000E94C3
:1007F000C102B4CF8F929F92AF92BF92CF92DF92FD
:10080000EF92FF920F93CF93DF93CDB7DEB7289788
:100810000FB6F894DEBF0FBECDBFFC0189829A826D
:10082000AB82BC82CD82DE82EF82F886DC01DF966D
:1008300011967C936E93129611965C934E9312963A
:100840002C9311960C9311A212A213A214A215A21A
:1008500016A217A210A611A612A613A614A617A6D2
:1008600010AA11AA12AA13AA14AA15AA16AA17AA9C
:1008700010AE11AE12AE13AE14AE15AE16AE4B8165
:100880005C812D813E818F81988569817A81718318
:1008900060835383428335832483978386831586BD
:1008A00016861786108A118E128E138E148E11865C
:1008B00012861386148628960FB6F894DEBF0FBEF4
:1008C000CDBFDF91CF910F91FF90EF90DF90CF9050
:1008D000BF90AF909F908F9008950F931F93CF93E9
:1008E000DF93CDB7DEB728970FB6F894DEBF0FBE03
:1008F000CDBFFC0109831A832B833C834D835E8328
:100900006F83788789819A81918380838B819C8191
:10091000938382838D819E81958384838F81988543
:100920009783868328960FB6F894DEBF0FBECDBF9F
:10093000DF91CF911F910F9108950F931F93FC01A9
:10094000818D928DA38DB48D03A914A925A936A9F3
:10095000801B910BA20BB30B87A790ABA1ABB2ABE3
:10096000818D928DA38DB48D83AB94ABA5ABB6ABCB
:1009700081879287A387B48776A765A71F910F9178
:1009800008954F925F926F927F928F929F92AF9253
:10099000BF92CF92DF92EF92FF920F931F93CF936C
:1009A000DF9300D000D0CDB7DEB78C01FC01858588
:1009B0009685A785B089181619061A061B067CF4B9
:1009C0008085882341F015A216A217A210A611A6B1
:1009D00012A613A614A6D80118961C9216C0BB2303
:1009E0008CF4F8018085813041F015A216A217A27F
:1009F00010A611A612A613A614A681E0D801189677
:100A00008C9303C082E0F8018087D8019F962D91D6
:100A10003D914D915C91D29760E472E48FE090E05B
:100A20000E944D06F80125A536A5220F331F220F7F
:100A3000331F40E050E00E945D06D8015D962D9383
:100A40003D934D935C9390971D968D909D90AD90A6
:100A5000BC90509775016401BB203CF4CC24DD248C
:100A60007601C818D908EA08FB08DA01C90155233C
:100A70003CF488279927DC01821B930BA40BB50B50
:100A8000C81AD90AEA0AFB0AF801C1A2D2A2E3A253
:100A9000F4A281A592A5A3A5B4A589839A83AB836B
:100AA000BC83A081B181A70196010E947C062B0125
:100AB0003C010480F581E02DD80195964D915D9122
:100AC0006D917C919897D701C601841B950BA60B5D
:100AD000B70B9C01AD01DF010E947C06460E571E3C
:100AE000681E791EF801A281B38129813A814B8168
:100AF0005C810E947C06640D751D861D971D2681F4
:100B0000378140E050E00E945D06D801D7962D93D2
:100B10003D934D935C93DA97F801C5A2D6A2E7A264
:100B2000F0A683AD94ADA5ADB6AD820F931FA41F03
:100B3000B51F83AF94AFA5AFB6AF89288A288B289D
:100B400049F411A612A613A614A615A216A217A25E
:100B500010A60CC089819A81AB81BC81C80ED91EB8
:100B6000EA1EFB1EC1A6D2A6E3A6F4A6F80181A543
:100B700092A5A3A5B4A58938F3E19F07A105B10506
:100B800054F088E893E1A0E0B0E0F80181A792A7D3
:100B9000A3A7B4A70EC088379C4EAF4FBF4F4CF4ED
:100BA00088E79CEEAFEFBFEFF80181A792A7A3A75C
:100BB000B4A7F80183AD94ADA5ADB6AD8F3F910557
:100BC000A105B10551F04CF08FEF90E0A0E0B0E04E
:100BD00083AF94AFA5AFB6AF06C0BB2324F413AE6A
:100BE00014AE15AE16AEF80180858130B9F018F05C
:100BF000823039F134C0F801EF5BFF4F0190F08192
:100C0000E02D2081D801AD5BBF4F9C9111968C9156
:100C1000892B80958223982B908321C0F801EF5B6C
:100C2000FF4F0190F081E02D2081D801AC5BBF4FD8
:100C30009C9111978C91892B80958223982B90837E
:100C40000EC0F801EF5BFF4FA081B1812C9133966C
:100C5000808131979081892B809582238C93F80134
:100C6000FF960190F081E02DD801DB968C91808376
:100C70000F900F900F900F90DF91CF911F910F91D8
:100C8000FF90EF90DF90CF90BF90AF909F908F90AC
:100C90007F906F905F904F900895DB018F939F93AB
:100CA0000E947C06BF91AF91A29F800D911DA39FD2
:100CB000900DB29F900D11240895052E97FB1EF400
:100CC00000940E94740657FD07D00E94870607FC17
:100CD00003D04EF40C9474065095409530952195B0
:100CE0003F4F4F4F5F4F0895909580957095619558
:100CF0007F4F8F4F9F4F08950E94A906A59F900D8B
:100D0000B49F900DA49F800D911D11240895A1E220
:100D10001A2EAA1BBB1BFD010DC0AA1FBB1FEE1F75
:100D2000FF1FA217B307E407F50720F0A21BB30BC0
:100D3000E40BF50B661F771F881F991F1A9469F73C
:100D400060957095809590959B01AC01BD01CF0198
:100D50000895A29FB001B39FC001A39F700D811D94
:100D60001124911DB29F700D811D1124911D0895B4
:100D7000CF93DF938230910510F482E090E0E09110
:100D8000DC01F091DD0120E030E0C0E0D0E0309700
:100D900011F14081518148175907C0F04817590790
:100DA00061F482819381209719F09B838A832BC001
:100DB0009093DD018093DC0126C02115310519F0E7
:100DC0004217530718F49A01BE01DF01EF010280B8
:100DD000F381E02DDCCF2115310509F1281B390BFA
:100DE0002430310590F412968D919C9113976115E2
:100DF000710521F0FB019383828304C09093DD0190
:100E00008093DC01FD01329644C0FD01E20FF31F27
:100E100081939193225031092D933C933AC02091B4
:100E2000DA013091DB01232B41F420910201309152
:100E300003013093DB012093DA012091000130910E
:100E400001012115310541F42DB73EB74091040150
:100E500050910501241B350BE091DA01F091DB0183
:100E6000E217F307A0F42E1B3F0B2817390778F081
:100E7000AC014E5F5F4F2417350748F04E0F5F1FE0
:100E80005093DB014093DA018193919302C0E0E03B
:100E9000F0E0CF01DF91CF9108950F931F93CF938F
:100EA000DF93009709F48CC0FC0132971382128201
:100EB0000091DC011091DD010115110581F4208103
:100EC0003181820F931F2091DA013091DB012817C5
:100ED000390779F5F093DB01E093DA0171C0D801AD
:100EE00040E050E0AE17BF0750F412962D913C91B0
:100EF0001397AD012115310509F1D901F3CF9D01FA
:100F0000DA013383228360817181860F971F8217F4
:100F1000930769F4EC0128813981260F371F2E5F72
:100F20003F4F318320838A819B8193838283452B2A
:100F300029F4F093DD01E093DC0142C01396FC93A9
:100F4000EE931297ED01499159919E01240F351F9F
:100F5000E217F30771F480819181840F951F029647
:100F600011969C938E938281938113969C938E937A
:100F70001297E0E0F0E0D80112968D919C911397C2
:100F8000009719F0F8018C01F6CF8D919C91980192
:100F90002E5F3F4F820F931F2091DA013091DB01CA
:100FA0002817390769F4309729F41092DD0110925F
:100FB000DC0102C0138212821093DB010093DA017C
:100FC000DF91CF911F910F910895AEE0B0E0EBEE6D
:100FD000F7E00C94F10D0D891E8986E08C831A834D
:100FE00009838FEF9FE79E838D83AE01475E5F4F3E
:100FF0006F89788DCE0101960E9421082F81388556
:10100000F801E20FF31F10822E96E4E00C940D0E0F
:10101000AEE0B0E0EEE0F8E00C94F30D85E08C83F8
:101020008B899C899A838983AE01495E5F4F6D8964
:101030007E89CE0101960E94730B2E96E2E00C94FD
:101040000F0EACE0B0E0E7E2F8E00C94E30D7C01B9
:101050006B018A01FC0117821682838181FFBDC169
:10106000CE0101964C01F7019381F60193FD859124
:1010700093FF81916F01882309F4ABC1853239F464
:1010800093FD859193FF81916F01853229F4B7011A
:1010900090E00E94090DE7CF512C312C20E0203246
:1010A000A0F48B3269F030F4803259F0833269F465
:1010B00020612CC08D3239F0803339F4216026C094
:1010C0002260246023C0286021C027FD27C030EDA6
:1010D000380F3A3078F426FF06C0FAE05F9E300DF4
:1010E0001124532E13C08AE0389E300D1124332E64
:1010F00020620CC08E3221F426FD6BC1206406C034
:101100008C3611F4206802C0883641F4F60193FD54
:10111000859193FF81916F018111C1CF982F9F7DA0
:101120009554933028F40C5F1F4FFFE3F9830DC0F3
:10113000833631F0833771F0833509F05BC022C00C
:10114000F801808189830E5F1F4F44244394512C02
:10115000540115C03801F2E06F0E711CF801A08037
:10116000B18026FF03C0652D70E002C06FEF7FEFF6
:10117000C5012C870E94C00C2C0183012C852F7780
:10118000222E17C03801F2E06F0E711CF801A0800A
:10119000B18026FF03C0652D70E002C06FEF7FEFC6
:1011A000C5012C870E94B50C2C012C852068222EAD
:1011B000830123FC1BC0832D90E048165906B0F430
:1011C000B70180E290E00E94090D3A94F4CFF50156
:1011D00027FC859127FE81915F01B70190E00E9475
:1011E000090D31103A94F1E04F1A5108411451049D
:1011F00071F7E5C0843611F0893639F5F80127FF1B
:1012000007C060817181828193810C5F1F4F08C08C
:1012100060817181072E000C880B990B0E5F1F4FA8
:101220002F76722E97FF09C09095809570956195E5
:101230007F4F8F4F9F4F2068722E2AE030E0A4012D
:101240000E945A0DA82EA81844C0853729F42F7E75
:10125000B22E2AE030E025C0F22FF97FBF2E8F3664
:10126000C1F018F4883579F0B4C0803719F08837A8
:1012700021F0AFC02F2F2061B22EB4FE0DC08B2DF8
:101280008460B82E09C024FF0AC09F2F9660B92E33
:1012900006C028E030E005C020E130E002C020E1D7
:1012A00032E0F801B7FE07C06081718182819381CD
:1012B0000C5F1F4F06C06081718180E090E00E5F7F
:1012C0001F4FA4010E945A0DA82EA818FB2DFF77CE
:1012D0007F2E76FE0BC0372D3E7FA51450F474FE92
:1012E0000AC072FC08C0372D3E7E05C0BA2C372DCF
:1012F00003C0BA2C01C0B52C34FF0DC0FE01EA0DAD
:10130000F11D8081803311F4397E09C032FF06C09F
:10131000B394B39404C0832F867809F0B39433FD5B
:1013200013C030FF06C05A2CB31418F4530C5B18CA
:10133000B32CB31468F4B70180E290E03C870E94BC
:10134000090DB3943C85F5CFB31410F43B1801C0DC
:10135000312C34FF12C0B70180E390E03C870E943B
:10136000090D3C8532FF17C031FD03C088E790E0CE
:1013700002C088E590E0B7010CC0832F867859F051
:1013800031FF02C08BE201C080E237FD8DE2B70180
:1013900090E00E94090DA51438F4B70180E390E0B5
:1013A0000E94090D5A94F7CFAA94F401EA0DF11D99
:1013B0008081B70190E00E94090DA110F5CF332084
:1013C00009F451CEB70180E290E00E94090D3A94F1
:1013D000F6CFF7018681978102C08FEF9FEF2C96A1
:1013E000E2E10C94FF0D20FD09C0FC0123FD05C0C6
:1013F00022FF02C07383628351834083089544FDBA
:1014000010C046FD10C0DB01FC01AA0FBB1FEE1F80
:10141000FF1F1094D1F76A0F7B1F8E1F9F1F31E0B3
:1014200003C033E001C034E0660F771F881F991FA7
:101430003150D1F7620F711D811D911D08950F93D9
:101440001F93CF93DF938C01C8010E94CB0CEC015A
:1014500097FD08C00E94A10C892BB1F7B801CE01FD
:101460000E94410DCE01DF91CF911F910F91089500
:10147000A1E0B0E0EEE3FAE00C94E90D8C01C62E99
:101480007A0129830E94CB0CAC01552729814B326C
:10149000510521F04D32510569F42068CA94C110FC
:1014A00002C080E076C0C80129830E94CB0C29814C
:1014B00097FDF7CF322F3D7FD32E322F307349F572
:1014C000803339F5BB24BA94BC0C09F44EC0C80172
:1014D00029830E94CB0C298197FD47C0382F3F7D7F
:1014E000383569F48D2D8264D82ECA94CA94CC20E4
:1014F000E1F1C8010E94CB0C97FF0BC036C026FF5C
:1015000004C02D2D2260D22E03C03D2D3261D32E7A
:10151000CB2C812C912C540120ED280F283080F009
:10152000D4FE04C0B8010E94410D1CC02A3040F016
:10153000D6FEF8CF2F7D3FEE320F363098F727508A
:101540004D2DC501B4010E94FF094B015C018D2D99
:101550008260D82ECA94CC2059F0C8010E94CB0CCE
:1015600097FFDACFD1FC04C09CCF812C912C540181
:10157000D7FE08C0B094A09490948094811C911CD4
:10158000A11CB11C2D2DB501A401C7010E94F309B6
:1015900081E02196ECE00C94050EA1E2B0E0E3EDD1
:1015A000FAE00C94E70D5C017A01CE0101966C0122
:1015B00080E2F60111928A95E9F7F501838040E017
:1015C00050E0912C712C70E0A1E0B0E0F90183FCB7
:1015D000859183FE81918F01982F9F01811103C016
:1015E00080E090E07CC08E3519F44115510549F139
:1015F000E72FF0E0E417F5073CF48D3559F18D3213
:1016000019F4772001F103C0711001C0982E892FC1
:101610008695869586958601080F111D892F8770FE
:101620003D0101C0660C8A95EAF7F80180818629A0
:101630008083991559F0991510F49F5FE8CF915068
:10164000E6CF71E004C07724739401C0712C4F5F22
:101650005F4FBCCF772019F08E8180628E8371112D
:1016600003C09924939416C0F6019E012F5D3F4F4D
:10167000808180958193E217F307D1F7F2CFE114CF
:10168000F10429F0F7018083C70101967C016150C4
:10169000912CF9F0C50169A30E94CB0C69A197FDBB
:1016A00016C0282F269526952695F601E20FF11DE6
:1016B000208130E0AC014770552702C03595279551
:1016C0004A95E2F720FDDBCFB5010E94410D911054
:1016D00087CFE114F10411F0F7011082C801A1963F
:1016E000EEE00C94030E4F925F927F928F929F9246
:1016F000AF92BF92CF92DF92EF92FF920F931F9320
:10170000CF93DF931F92CDB7DEB76C012B015A0147
:10171000FC0117821682712CF601F380F201F3FCB2
:101720008591F3FE8191382F2F01882309F4F3C0AE
:1017300090E039830E94A10C3981892B21F0C601E8
:101740000E941F0AE9CF353241F4F201F3FC3591D2
:10175000F3FE31912F01353269F4C60139830E94BD
:10176000CB0C398197FDD5C03817B1F2B6010E9474
:10177000410DD1C03A3239F4F3FC3591F3FE319189
:101780002F0151E001C050E0420110E020ED230F95
:101790002A3090F45260612F70E080E090E040E2E7
:1017A00059830E94FF09162FF401F3FC3591F3FED3
:1017B00031914F015981EACF052F232F240151FF89
:1017C00003C0111102C0A7C01FEF383619F03C3614
:1017D00059F011C0F401F3FC2591F3FE21912F0182
:1017E000283649F4052F08600460F201F3FC2591C6
:1017F000F3FE21912F01222309F48DC0622F70E0A6
:1018000088E690E029830E94AA0C2981892B09F49B
:1018100082C000FD07C0F501E080F180C50102969D
:101820005C0102C0E12CF12C2E3651F4F601468108
:10183000578160E070E0202FC7010E94F3096CCF50
:10184000233691F401FF11E0C6010E94CB0C97FDF5
:1018500060C0E114F10429F0F7018083C70101960B
:101860007C01115089F751C02B3559F49201A70121
:10187000612FC6010E94CD0A2C01892B09F045C0B9
:101880003FC0C60129830E941F0A298197FD41C0DC
:101890002F3659F128F4243631F1293649F127C081
:1018A000233769F02537F9F022C0E114F10429F05B
:1018B000F7018082C70101967C01115071F0C601C9
:1018C0000E94CB0C4C0197FD08C00E94A10C892BF3
:1018D00061F3B601C4010E94410DE114F104A9F0C5
:1018E000F701108212C0006203C0006101C00064F1
:1018F000202FA701612FC6010E94380A811105C05F
:10190000F6018381807329F406C000FD05CF73942E
:1019100003CF772019F0872D90E002C08FEF9FEF63
:101920000F90DF91CF911F910F91FF90EF90DF907B
:10193000CF90BF90AF909F908F907F905F904F908F
:10194000089591110C94B80D803219F0895085508A
:10195000C8F70895FC010590061621F00020D9F77C
:10196000C00108953197CF010895FC0105906150A1
:1019700070400110D8F7809590958E0F9F1F0895A5
:10198000FC016150704001900110D8F7809590954E
:101990008E0F9F1F0895CF93DF93EC012B8120FFC3
:1019A00033C026FF0AC02F7B2B838E819F81019637
:1019B0009F838E838A8190E029C022FF0FC0E88137
:1019C000F9818081082E000C990B009719F4206290
:1019D0002B831AC03196F983E8830EC0EA85FB8514
:1019E000099597FF09C02B81019611F080E201C093
:1019F00080E1822B8B8308C02E813F812F5F3F4F78
:101A00003F832E83992702C08FEF9FEFDF91CF9105
:101A100008950F931F93CF93DF93FB01238121FD43
:101A200003C08FEF9FEF28C022FF16C04681578169
:101A3000248135814217530744F4A081B1819D016F
:101A40002F5F3F4F318320838C93268137812F5F17
:101A50003F4F3783268310C0EB01092F182F0084D6
:101A6000F185E02D0995892BE1F68E819F81019604
:101A70009F838E83812F902FDF91CF911F910F91A4
:101A80000895FB01238120FF12C026FD10C08F3F67
:101A90003FEF930761F082832F7D206423832681AB
:101AA00037812150310937832683992708958FEF95
:101AB0009FEF0895FA01AA27283051F1203181F1D2
:101AC000E8946F936E7F6E5F7F4F8F4F9F4FAF4F46
:101AD000B1E03ED0B4E03CD0670F781F891F9A1F59
:101AE000A11D680F791F8A1F911DA11D6A0F711D0D
:101AF000811D911DA11D20D009F468943F912AE019
:101B0000269F11243019305D3193DEF6CF01089500
:101B1000462F4770405D4193B3E00FD0C9F7F6CF31
:101B2000462F4F70405D4A3318F0495D31FD4052F9
:101B3000419302D0A9F7EACFB4E0A695979587958F
:101B400077956795BA95C9F700976105710508956E
:101B50009B01AC010A2E069457954795379527951A
:101B6000BA95C9F7620F731F841F951FA01D0895B2
:101B7000992788270895DC01CB01FC01F999FECF54
:101B800006C0F2BDE1BDF89A319600B40D92415005
:101B90005040B8F70895DC01CB0103C02D910E949D
:101BA000D60D41505040D0F70895262FF999FECF19
:101BB0001FBA92BD81BD20BD0FB6F894FA9AF99A6A
:101BC0000FBE019608952F923F924F925F926F92AF
:101BD0007F928F929F92AF92BF92CF92DF92EF92BD
:101BE000FF920F931F93CF93DF93CDB7DEB7CA1B3E
:101BF000DB0B0FB6F894DEBF0FBECDBF09942A8869
:101C0000398848885F846E847D848C849B84AA8410
:101C1000B984C884DF80EE80FD800C811B81AA819D
:101C2000B981CE0FD11D0FB6F894DEBF0FBECDBF68
:081C3000ED010895F894FFCFC7
:101C38000000DE01200000FF0100010000FFFF009E
:101C480000010001FF005041256C6442256C6400CE
:101C58005041256C6442256C645641256C644225CC
:101C68006C64007025750969257509642575096F07
:101C780025750078256C6478256C640041256C69AD
:101C880042256C69007025756925756425756F2571
:021C98007500D5
:00000001FF
